{
  "_format": "hh-sol-artifact-1",
  "contractName": "AGMToken",
  "sourceName": "contracts/AGMToken.sol",
  "abi": [
    {
      "inputs": [],
      "stateMutability": "nonpayable",
      "type": "constructor"
    },
    {
      "inputs": [
        {
          "internalType": "address",
          "name": "spender",
          "type": "address"
        },
        {
          "internalType": "uint256",
          "name": "allowance",
          "type": "uint256"
        },
        {
          "internalType": "uint256",
          "name": "needed",
          "type": "uint256"
        }
      ],
      "name": "ERC20InsufficientAllowance",
      "type": "error"
    },
    {
      "inputs": [
        {
          "internalType": "address",
          "name": "sender",
          "type": "address"
        },
        {
          "internalType": "uint256",
          "name": "balance",
          "type": "uint256"
        },
        {
          "internalType": "uint256",
          "name": "needed",
          "type": "uint256"
        }
      ],
      "name": "ERC20InsufficientBalance",
      "type": "error"
    },
    {
      "inputs": [
        {
          "internalType": "address",
          "name": "approver",
          "type": "address"
        }
      ],
      "name": "ERC20InvalidApprover",
      "type": "error"
    },
    {
      "inputs": [
        {
          "internalType": "address",
          "name": "receiver",
          "type": "address"
        }
      ],
      "name": "ERC20InvalidReceiver",
      "type": "error"
    },
    {
      "inputs": [
        {
          "internalType": "address",
          "name": "sender",
          "type": "address"
        }
      ],
      "name": "ERC20InvalidSender",
      "type": "error"
    },
    {
      "inputs": [
        {
          "internalType": "address",
          "name": "spender",
          "type": "address"
        }
      ],
      "name": "ERC20InvalidSpender",
      "type": "error"
    },
    {
      "inputs": [],
      "name": "EnforcedPause",
      "type": "error"
    },
    {
      "inputs": [],
      "name": "ExpectedPause",
      "type": "error"
    },
    {
      "inputs": [
        {
          "internalType": "address",
          "name": "owner",
          "type": "address"
        }
      ],
      "name": "OwnableInvalidOwner",
      "type": "error"
    },
    {
      "inputs": [
        {
          "internalType": "address",
          "name": "account",
          "type": "address"
        }
      ],
      "name": "OwnableUnauthorizedAccount",
      "type": "error"
    },
    {
      "inputs": [],
      "name": "ReentrancyGuardReentrantCall",
      "type": "error"
    },
    {
      "anonymous": false,
      "inputs": [
        {
          "indexed": true,
          "internalType": "address",
          "name": "owner",
          "type": "address"
        },
        {
          "indexed": true,
          "internalType": "address",
          "name": "spender",
          "type": "address"
        },
        {
          "indexed": false,
          "internalType": "uint256",
          "name": "value",
          "type": "uint256"
        }
      ],
      "name": "Approval",
      "type": "event"
    },
    {
      "anonymous": false,
      "inputs": [
        {
          "indexed": true,
          "internalType": "address",
          "name": "farmer",
          "type": "address"
        },
        {
          "indexed": false,
          "internalType": "uint256",
          "name": "amount",
          "type": "uint256"
        }
      ],
      "name": "FarmerRewardDistributed",
      "type": "event"
    },
    {
      "anonymous": false,
      "inputs": [
        {
          "indexed": true,
          "internalType": "address",
          "name": "farmer",
          "type": "address"
        }
      ],
      "name": "FarmerVerified",
      "type": "event"
    },
    {
      "anonymous": false,
      "inputs": [
        {
          "indexed": true,
          "internalType": "address",
          "name": "previousOwner",
          "type": "address"
        },
        {
          "indexed": true,
          "internalType": "address",
          "name": "newOwner",
          "type": "address"
        }
      ],
      "name": "OwnershipTransferred",
      "type": "event"
    },
    {
      "anonymous": false,
      "inputs": [
        {
          "indexed": false,
          "internalType": "address",
          "name": "account",
          "type": "address"
        }
      ],
      "name": "Paused",
      "type": "event"
    },
    {
      "anonymous": false,
      "inputs": [
        {
          "indexed": true,
          "internalType": "address",
          "name": "staker",
          "type": "address"
        },
        {
          "indexed": false,
          "internalType": "uint256",
          "name": "reward",
          "type": "uint256"
        }
      ],
      "name": "StakingRewardClaimed",
      "type": "event"
    },
    {
      "anonymous": false,
      "inputs": [
        {
          "indexed": true,
          "internalType": "bytes32",
          "name": "itemId",
          "type": "bytes32"
        },
        {
          "indexed": true,
          "internalType": "address",
          "name": "farmer",
          "type": "address"
        }
      ],
      "name": "SupplyChainItemAdded",
      "type": "event"
    },
    {
      "anonymous": false,
      "inputs": [
        {
          "indexed": true,
          "internalType": "bytes32",
          "name": "itemId",
          "type": "bytes32"
        },
        {
          "indexed": true,
          "internalType": "address",
          "name": "updater",
          "type": "address"
        }
      ],
      "name": "SupplyChainItemUpdated",
      "type": "event"
    },
    {
      "anonymous": false,
      "inputs": [
        {
          "indexed": true,
          "internalType": "address",
          "name": "staker",
          "type": "address"
        },
        {
          "indexed": false,
          "internalType": "uint256",
          "name": "amount",
          "type": "uint256"
        }
      ],
      "name": "TokensStaked",
      "type": "event"
    },
    {
      "anonymous": false,
      "inputs": [
        {
          "indexed": true,
          "internalType": "address",
          "name": "staker",
          "type": "address"
        },
        {
          "indexed": false,
          "internalType": "uint256",
          "name": "amount",
          "type": "uint256"
        }
      ],
      "name": "TokensUnstaked",
      "type": "event"
    },
    {
      "anonymous": false,
      "inputs": [
        {
          "indexed": true,
          "internalType": "address",
          "name": "from",
          "type": "address"
        },
        {
          "indexed": true,
          "internalType": "address",
          "name": "to",
          "type": "address"
        },
        {
          "indexed": false,
          "internalType": "uint256",
          "name": "value",
          "type": "uint256"
        }
      ],
      "name": "Transfer",
      "type": "event"
    },
    {
      "anonymous": false,
      "inputs": [
        {
          "indexed": false,
          "internalType": "address",
          "name": "account",
          "type": "address"
        }
      ],
      "name": "Unpaused",
      "type": "event"
    },
    {
      "inputs": [],
      "name": "MAX_SUPPLY",
      "outputs": [
        {
          "internalType": "uint256",
          "name": "",
          "type": "uint256"
        }
      ],
      "stateMutability": "view",
      "type": "function"
    },
    {
      "inputs": [
        {
          "internalType": "address",
          "name": "tracker",
          "type": "address"
        }
      ],
      "name": "addAuthorizedTracker",
      "outputs": [],
      "stateMutability": "nonpayable",
      "type": "function"
    },
    {
      "inputs": [
        {
          "internalType": "bytes32",
          "name": "itemId",
          "type": "bytes32"
        },
        {
          "internalType": "string",
          "name": "productName",
          "type": "string"
        },
        {
          "internalType": "uint256",
          "name": "quantity",
          "type": "uint256"
        },
        {
          "internalType": "uint256",
          "name": "harvestDate",
          "type": "uint256"
        },
        {
          "internalType": "string",
          "name": "location",
          "type": "string"
        },
        {
          "internalType": "bool",
          "name": "organic",
          "type": "bool"
        },
        {
          "internalType": "string[]",
          "name": "certifications",
          "type": "string[]"
        }
      ],
      "name": "addSupplyChainItem",
      "outputs": [],
      "stateMutability": "nonpayable",
      "type": "function"
    },
    {
      "inputs": [
        {
          "internalType": "address",
          "name": "owner",
          "type": "address"
        },
        {
          "internalType": "address",
          "name": "spender",
          "type": "address"
        }
      ],
      "name": "allowance",
      "outputs": [
        {
          "internalType": "uint256",
          "name": "",
          "type": "uint256"
        }
      ],
      "stateMutability": "view",
      "type": "function"
    },
    {
      "inputs": [
        {
          "internalType": "address",
          "name": "spender",
          "type": "address"
        },
        {
          "internalType": "uint256",
          "name": "value",
          "type": "uint256"
        }
      ],
      "name": "approve",
      "outputs": [
        {
          "internalType": "bool",
          "name": "",
          "type": "bool"
        }
      ],
      "stateMutability": "nonpayable",
      "type": "function"
    },
    {
      "inputs": [
        {
          "internalType": "address",
          "name": "",
          "type": "address"
        }
      ],
      "name": "authorizedTrackers",
      "outputs": [
        {
          "internalType": "bool",
          "name": "",
          "type": "bool"
        }
      ],
      "stateMutability": "view",
      "type": "function"
    },
    {
      "inputs": [
        {
          "internalType": "address",
          "name": "account",
          "type": "address"
        }
      ],
      "name": "balanceOf",
      "outputs": [
        {
          "internalType": "uint256",
          "name": "",
          "type": "uint256"
        }
      ],
      "stateMutability": "view",
      "type": "function"
    },
    {
      "inputs": [
        {
          "internalType": "uint256",
          "name": "value",
          "type": "uint256"
        }
      ],
      "name": "burn",
      "outputs": [],
      "stateMutability": "nonpayable",
      "type": "function"
    },
    {
      "inputs": [
        {
          "internalType": "address",
          "name": "account",
          "type": "address"
        },
        {
          "internalType": "uint256",
          "name": "value",
          "type": "uint256"
        }
      ],
      "name": "burnFrom",
      "outputs": [],
      "stateMutability": "nonpayable",
      "type": "function"
    },
    {
      "inputs": [
        {
          "internalType": "address",
          "name": "staker",
          "type": "address"
        }
      ],
      "name": "calculateStakingReward",
      "outputs": [
        {
          "internalType": "uint256",
          "name": "",
          "type": "uint256"
        }
      ],
      "stateMutability": "view",
      "type": "function"
    },
    {
      "inputs": [],
      "name": "claimStakingRewards",
      "outputs": [],
      "stateMutability": "nonpayable",
      "type": "function"
    },
    {
      "inputs": [],
      "name": "decimals",
      "outputs": [
        {
          "internalType": "uint8",
          "name": "",
          "type": "uint8"
        }
      ],
      "stateMutability": "view",
      "type": "function"
    },
    {
      "inputs": [
        {
          "internalType": "address",
          "name": "farmer",
          "type": "address"
        },
        {
          "internalType": "uint256",
          "name": "amount",
          "type": "uint256"
        }
      ],
      "name": "distributeFarmerReward",
      "outputs": [],
      "stateMutability": "nonpayable",
      "type": "function"
    },
    {
      "inputs": [
        {
          "internalType": "uint256",
          "name": "amount",
          "type": "uint256"
        }
      ],
      "name": "emergencyWithdraw",
      "outputs": [],
      "stateMutability": "nonpayable",
      "type": "function"
    },
    {
      "inputs": [
        {
          "internalType": "address",
          "name": "",
          "type": "address"
        }
      ],
      "name": "farmerRewards",
      "outputs": [
        {
          "internalType": "uint256",
          "name": "",
          "type": "uint256"
        }
      ],
      "stateMutability": "view",
      "type": "function"
    },
    {
      "inputs": [
        {
          "internalType": "address",
          "name": "farmer",
          "type": "address"
        }
      ],
      "name": "getFarmerRewards",
      "outputs": [
        {
          "internalType": "uint256",
          "name": "",
          "type": "uint256"
        }
      ],
      "stateMutability": "view",
      "type": "function"
    },
    {
      "inputs": [
        {
          "internalType": "address",
          "name": "staker",
          "type": "address"
        }
      ],
      "name": "getStakingInfo",
      "outputs": [
        {
          "internalType": "uint256",
          "name": "stakedAmount",
          "type": "uint256"
        },
        {
          "internalType": "uint256",
          "name": "stakingTime",
          "type": "uint256"
        },
        {
          "internalType": "uint256",
          "name": "pendingRewards",
          "type": "uint256"
        }
      ],
      "stateMutability": "view",
      "type": "function"
    },
    {
      "inputs": [
        {
          "internalType": "bytes32",
          "name": "itemId",
          "type": "bytes32"
        }
      ],
      "name": "getSupplyChainItem",
      "outputs": [
        {
          "components": [
            {
              "internalType": "bytes32",
              "name": "id",
              "type": "bytes32"
            },
            {
              "internalType": "address",
              "name": "farmer",
              "type": "address"
            },
            {
              "internalType": "string",
              "name": "productName",
              "type": "string"
            },
            {
              "internalType": "uint256",
              "name": "quantity",
              "type": "uint256"
            },
            {
              "internalType": "uint256",
              "name": "harvestDate",
              "type": "uint256"
            },
            {
              "internalType": "uint256",
              "name": "timestamp",
              "type": "uint256"
            },
            {
              "internalType": "string",
              "name": "location",
              "type": "string"
            },
            {
              "internalType": "bool",
              "name": "organic",
              "type": "bool"
            },
            {
              "internalType": "string[]",
              "name": "certifications",
              "type": "string[]"
            },
            {
              "internalType": "address",
              "name": "currentOwner",
              "type": "address"
            },
            {
              "internalType": "enum AGMToken.ItemStatus",
              "name": "status",
              "type": "uint8"
            }
          ],
          "internalType": "struct AGMToken.SupplyChainItem",
          "name": "",
          "type": "tuple"
        }
      ],
      "stateMutability": "view",
      "type": "function"
    },
    {
      "inputs": [],
      "name": "getTotalStaked",
      "outputs": [
        {
          "internalType": "uint256",
          "name": "",
          "type": "uint256"
        }
      ],
      "stateMutability": "view",
      "type": "function"
    },
    {
      "inputs": [
        {
          "internalType": "address",
          "name": "farmer",
          "type": "address"
        }
      ],
      "name": "isFarmerVerified",
      "outputs": [
        {
          "internalType": "bool",
          "name": "",
          "type": "bool"
        }
      ],
      "stateMutability": "view",
      "type": "function"
    },
    {
      "inputs": [],
      "name": "minimumStakingPeriod",
      "outputs": [
        {
          "internalType": "uint256",
          "name": "",
          "type": "uint256"
        }
      ],
      "stateMutability": "view",
      "type": "function"
    },
    {
      "inputs": [],
      "name": "name",
      "outputs": [
        {
          "internalType": "string",
          "name": "",
          "type": "string"
        }
      ],
      "stateMutability": "view",
      "type": "function"
    },
    {
      "inputs": [],
      "name": "owner",
      "outputs": [
        {
          "internalType": "address",
          "name": "",
          "type": "address"
        }
      ],
      "stateMutability": "view",
      "type": "function"
    },
    {
      "inputs": [],
      "name": "pause",
      "outputs": [],
      "stateMutability": "nonpayable",
      "type": "function"
    },
    {
      "inputs": [],
      "name": "paused",
      "outputs": [
        {
          "internalType": "bool",
          "name": "",
          "type": "bool"
        }
      ],
      "stateMutability": "view",
      "type": "function"
    },
    {
      "inputs": [
        {
          "internalType": "address",
          "name": "tracker",
          "type": "address"
        }
      ],
      "name": "removeAuthorizedTracker",
      "outputs": [],
      "stateMutability": "nonpayable",
      "type": "function"
    },
    {
      "inputs": [],
      "name": "renounceOwnership",
      "outputs": [],
      "stateMutability": "nonpayable",
      "type": "function"
    },
    {
      "inputs": [
        {
          "internalType": "uint256",
          "name": "amount",
          "type": "uint256"
        }
      ],
      "name": "stakeTokens",
      "outputs": [],
      "stateMutability": "nonpayable",
      "type": "function"
    },
    {
      "inputs": [
        {
          "internalType": "address",
          "name": "",
          "type": "address"
        }
      ],
      "name": "stakedBalance",
      "outputs": [
        {
          "internalType": "uint256",
          "name": "",
          "type": "uint256"
        }
      ],
      "stateMutability": "view",
      "type": "function"
    },
    {
      "inputs": [],
      "name": "stakingRewardRate",
      "outputs": [
        {
          "internalType": "uint256",
          "name": "",
          "type": "uint256"
        }
      ],
      "stateMutability": "view",
      "type": "function"
    },
    {
      "inputs": [
        {
          "internalType": "address",
          "name": "",
          "type": "address"
        }
      ],
      "name": "stakingRewards",
      "outputs": [
        {
          "internalType": "uint256",
          "name": "",
          "type": "uint256"
        }
      ],
      "stateMutability": "view",
      "type": "function"
    },
    {
      "inputs": [
        {
          "internalType": "address",
          "name": "",
          "type": "address"
        }
      ],
      "name": "stakingTimestamp",
      "outputs": [
        {
          "internalType": "uint256",
          "name": "",
          "type": "uint256"
        }
      ],
      "stateMutability": "view",
      "type": "function"
    },
    {
      "inputs": [
        {
          "internalType": "bytes32",
          "name": "",
          "type": "bytes32"
        }
      ],
      "name": "supplyChain",
      "outputs": [
        {
          "internalType": "bytes32",
          "name": "id",
          "type": "bytes32"
        },
        {
          "internalType": "address",
          "name": "farmer",
          "type": "address"
        },
        {
          "internalType": "string",
          "name": "productName",
          "type": "string"
        },
        {
          "internalType": "uint256",
          "name": "quantity",
          "type": "uint256"
        },
        {
          "internalType": "uint256",
          "name": "harvestDate",
          "type": "uint256"
        },
        {
          "internalType": "uint256",
          "name": "timestamp",
          "type": "uint256"
        },
        {
          "internalType": "string",
          "name": "location",
          "type": "string"
        },
        {
          "internalType": "bool",
          "name": "organic",
          "type": "bool"
        },
        {
          "internalType": "address",
          "name": "currentOwner",
          "type": "address"
        },
        {
          "internalType": "enum AGMToken.ItemStatus",
          "name": "status",
          "type": "uint8"
        }
      ],
      "stateMutability": "view",
      "type": "function"
    },
    {
      "inputs": [],
      "name": "symbol",
      "outputs": [
        {
          "internalType": "string",
          "name": "",
          "type": "string"
        }
      ],
      "stateMutability": "view",
      "type": "function"
    },
    {
      "inputs": [],
      "name": "totalSupply",
      "outputs": [
        {
          "internalType": "uint256",
          "name": "",
          "type": "uint256"
        }
      ],
      "stateMutability": "view",
      "type": "function"
    },
    {
      "inputs": [
        {
          "internalType": "address",
          "name": "to",
          "type": "address"
        },
        {
          "internalType": "uint256",
          "name": "value",
          "type": "uint256"
        }
      ],
      "name": "transfer",
      "outputs": [
        {
          "internalType": "bool",
          "name": "",
          "type": "bool"
        }
      ],
      "stateMutability": "nonpayable",
      "type": "function"
    },
    {
      "inputs": [
        {
          "internalType": "address",
          "name": "from",
          "type": "address"
        },
        {
          "internalType": "address",
          "name": "to",
          "type": "address"
        },
        {
          "internalType": "uint256",
          "name": "value",
          "type": "uint256"
        }
      ],
      "name": "transferFrom",
      "outputs": [
        {
          "internalType": "bool",
          "name": "",
          "type": "bool"
        }
      ],
      "stateMutability": "nonpayable",
      "type": "function"
    },
    {
      "inputs": [
        {
          "internalType": "address",
          "name": "newOwner",
          "type": "address"
        }
      ],
      "name": "transferOwnership",
      "outputs": [],
      "stateMutability": "nonpayable",
      "type": "function"
    },
    {
      "inputs": [],
      "name": "unpause",
      "outputs": [],
      "stateMutability": "nonpayable",
      "type": "function"
    },
    {
      "inputs": [
        {
          "internalType": "uint256",
          "name": "amount",
          "type": "uint256"
        }
      ],
      "name": "unstakeTokens",
      "outputs": [],
      "stateMutability": "nonpayable",
      "type": "function"
    },
    {
      "inputs": [
        {
          "internalType": "uint256",
          "name": "newPeriod",
          "type": "uint256"
        }
      ],
      "name": "updateMinimumStakingPeriod",
      "outputs": [],
      "stateMutability": "nonpayable",
      "type": "function"
    },
    {
      "inputs": [
        {
          "internalType": "uint256",
          "name": "newRate",
          "type": "uint256"
        }
      ],
      "name": "updateStakingRewardRate",
      "outputs": [],
      "stateMutability": "nonpayable",
      "type": "function"
    },
    {
      "inputs": [
        {
          "internalType": "bytes32",
          "name": "itemId",
          "type": "bytes32"
        },
        {
          "internalType": "enum AGMToken.ItemStatus",
          "name": "newStatus",
          "type": "uint8"
        },
        {
          "internalType": "address",
          "name": "newOwner",
          "type": "address"
        }
      ],
      "name": "updateSupplyChainItem",
      "outputs": [],
      "stateMutability": "nonpayable",
      "type": "function"
    },
    {
      "inputs": [
        {
          "internalType": "address",
          "name": "",
          "type": "address"
        }
      ],
      "name": "verifiedFarmers",
      "outputs": [
        {
          "internalType": "bool",
          "name": "",
          "type": "bool"
        }
      ],
      "stateMutability": "view",
      "type": "function"
    },
    {
      "inputs": [
        {
          "internalType": "address",
          "name": "farmer",
          "type": "address"
        }
      ],
      "name": "verifyFarmer",
      "outputs": [],
      "stateMutability": "nonpayable",
      "type": "function"
    }
  ],
  "bytecode": "0x60806040526005600e5562278d00600f553480156200001d57600080fd5b50336040518060400160405280600e81526020016d20b3b934b6b0b0b7102a37b5b2b760911b8152506040518060400160405280600381526020016241474d60e81b8152508160039081620000739190620003a5565b506004620000828282620003a5565b5050506001600160a01b038116620000b557604051631e4fbdf760e01b8152600060048201526024015b60405180910390fd5b620000c081620000e6565b506001600655620000e0336d04ee2d6d415b85acef810000000062000140565b62000499565b600580546001600160a01b03838116610100818102610100600160a81b031985161790945560405193909204169182907f8be0079c531659141344cd1fd0a4f28419497f9722a3daafe3b4186f6b6457e090600090a35050565b6001600160a01b0382166200016c5760405163ec442f0560e01b815260006004820152602401620000ac565b6200017a600083836200017e565b5050565b6200018b83838362000190565b505050565b6200019a620001a7565b6200018b838383620001ce565b60055460ff1615620001cc5760405163d93c066560e01b815260040160405180910390fd5b565b6001600160a01b038316620001fd578060026000828254620001f1919062000471565b90915550620002719050565b6001600160a01b03831660009081526020819052604090205481811015620002525760405163391434e360e21b81526001600160a01b03851660048201526024810182905260448101839052606401620000ac565b6001600160a01b03841660009081526020819052604090209082900390555b6001600160a01b0382166200028f57600280548290039055620002ae565b6001600160a01b03821660009081526020819052604090208054820190555b816001600160a01b0316836001600160a01b03167fddf252ad1be2c89b69c2b068fc378daa952ba7f163c4a11628f55a4df523b3ef83604051620002f491815260200190565b60405180910390a3505050565b634e487b7160e01b600052604160045260246000fd5b600181811c908216806200032c57607f821691505b6020821081036200034d57634e487b7160e01b600052602260045260246000fd5b50919050565b601f8211156200018b57600081815260208120601f850160051c810160208610156200037c5750805b601f850160051c820191505b818110156200039d5782815560010162000388565b505050505050565b81516001600160401b03811115620003c157620003c162000301565b620003d981620003d2845462000317565b8462000353565b602080601f831160018114620004115760008415620003f85750858301515b600019600386901b1c1916600185901b1785556200039d565b600085815260208120601f198616915b82811015620004425788860151825594840194600190910190840162000421565b5085821015620004615787850151600019600388901b60f8161c191681555b5050505050600190811b01905550565b808201808211156200049357634e487b7160e01b600052601160045260246000fd5b92915050565b61269a80620004a96000396000f3fe608060405234801561001057600080fd5b506004361061027f5760003560e01c80635c975abb1161015c5780637ebed54c116100ce578063a9059cbb11610087578063a9059cbb146105d5578063aa4704f3146105e8578063c4d3097d14610616578063dd62ed3e14610642578063f2fde38b1461067b578063fd831f551461068e57600080fd5b80637ebed54c146105605780638456cb59146105695780638da5cb5b146105715780638f0794fe1461059a57806393ef7da5146105ba57806395d89b41146105cd57600080fd5b80636e8bdb33116101205780636e8bdb33146104d657806370a08231146104e95780637139adba14610512578063715018a6146105325780637547c7a31461053a57806379cc67901461054d57600080fd5b80635c975abb1461047d5780636021726714610488578063608e4dd0146104a8578063667781df146104bb5780636b69e05b146104ce57600080fd5b8063313ce567116101f557806348c7b135116101b957806348c7b135146103fb578063499d7f961461041b5780634b6f3fa71461043b5780634f3fc2df1461044e57806351662f7b146104575780635312ea8e1461046a57600080fd5b8063313ce567146103a957806332cb6b0c146103b85780633f4ba83a146103cd57806342966c68146103d5578063456aaa3f146103e857600080fd5b80630c3d272c116102475780630c3d272c146103225780630d505541146103455780630fd7fdf01461035857806318160ddd1461037b578063235db9f51461038357806323b872dd1461039657600080fd5b8063014c07bb14610284578063061aa1551461029957806306fdde03146102cb5780630917e776146102e0578063095ea7b3146102ff575b600080fd5b610297610292366004611f20565b6106b7565b005b6102ac6102a7366004611f42565b6106e3565b6040516102c29a99989796959493929190611fd9565b60405180910390f35b6102d361085c565b6040516102c2919061205d565b306000908152602081905260409020545b6040519081526020016102c2565b61031261030d366004612070565b6108ee565b60405190151581526020016102c2565b610312610330366004611f20565b600a6020526000908152604090205460ff1681565b6102f1610353366004611f20565b610908565b610312610366366004611f20565b600d6020526000908152604090205460ff1681565b6002546102f1565b610297610391366004611f20565b6109ae565b6103126103a436600461209a565b610a56565b604051601281526020016102c2565b6102f16d04ee2d6d415b85acef810000000081565b610297610a7a565b6102976103e3366004611f42565b610a8c565b6102976103f6366004611f42565b610a99565b61040e610409366004611f42565b610aee565b6040516102c2919061212b565b6102f1610429366004611f20565b60096020526000908152604090205481565b610297610449366004611f42565b610da7565b6102f1600e5481565b610297610465366004612373565b610dfa565b610297610478366004611f42565b61108d565b60055460ff16610312565b6102f1610496366004611f20565b60076020526000908152604090205481565b6102976104b6366004611f42565b611116565b6102976104c9366004612070565b6112bb565b610297611401565b6102976104e4366004612432565b611504565b6102f16104f7366004611f20565b6001600160a01b031660009081526020819052604090205490565b6102f1610520366004611f20565b600b6020526000908152604090205481565b61029761168d565b610297610548366004611f42565b61169f565b61029761055b366004612070565b6117dd565b6102f1600f5481565b6102976117f6565b60055461010090046001600160a01b03166040516001600160a01b0390911681526020016102c2565b6102f16105a8366004611f20565b60086020526000908152604090205481565b6102976105c8366004611f20565b611806565b6102d361182f565b6103126105e3366004612070565b61183e565b6105fb6105f6366004611f20565b61184c565b604080519384526020840192909252908201526060016102c2565b610312610624366004611f20565b6001600160a01b03166000908152600a602052604090205460ff1690565b6102f1610650366004612474565b6001600160a01b03918216600090815260016020908152604080832093909416825291909152205490565b610297610689366004611f20565b61188a565b6102f161069c366004611f20565b6001600160a01b03166000908152600b602052604090205490565b6106bf6118c5565b6001600160a01b03166000908152600d60205260409020805460ff19166001179055565b600c6020526000908152604090208054600182015460028301805492936001600160a01b0390921692610715906124a7565b80601f0160208091040260200160405190810160405280929190818152602001828054610741906124a7565b801561078e5780601f106107635761010080835404028352916020019161078e565b820191906000526020600020905b81548152906001019060200180831161077157829003601f168201915b5050505050908060030154908060040154908060050154908060060180546107b5906124a7565b80601f01602080910402602001604051908101604052809291908181526020018280546107e1906124a7565b801561082e5780601f106108035761010080835404028352916020019161082e565b820191906000526020600020905b81548152906001019060200180831161081157829003601f168201915b505050506007830154600990930154919260ff908116926001600160a01b0381169250600160a01b9004168a565b60606003805461086b906124a7565b80601f0160208091040260200160405190810160405280929190818152602001828054610897906124a7565b80156108e45780601f106108b9576101008083540402835291602001916108e4565b820191906000526020600020905b8154815290600101906020018083116108c757829003601f168201915b5050505050905090565b6000336108fc8185856118f8565b60019150505b92915050565b6001600160a01b038116600090815260076020526040812054810361092f57506000919050565b6001600160a01b03821660009081526008602052604081205461095290426124f7565b600e546001600160a01b0385166000908152600760205260408120549293509160649161097e9161250a565b6109889190612521565b905060006301e1338061099b848461250a565b6109a59190612521565b95945050505050565b6109b66118c5565b6001600160a01b038116610a0a5760405162461bcd60e51b8152602060048201526016602482015275496e76616c6964206661726d6572206164647265737360501b60448201526064015b60405180910390fd5b6001600160a01b0381166000818152600a6020526040808220805460ff19166001179055517f97fd55e582c49240f46c243bd781dd3df6defaecbdb51de7b250b3162bdc99ab9190a250565b600033610a6485828561190a565b610a6f858585611989565b506001949350505050565b610a826118c5565b610a8a6119e8565b565b610a963382611a3a565b50565b610aa16118c5565b6014811115610ae95760405162461bcd60e51b81526020600482015260146024820152730a4caeec2e4c840e4c2e8ca40e8dede40d0d2ced60631b6044820152606401610a01565b600e55565b610af6611dc6565b6000828152600c60209081526040918290208251610160810184528154815260018201546001600160a01b0316928101929092526002810180549293919291840191610b41906124a7565b80601f0160208091040260200160405190810160405280929190818152602001828054610b6d906124a7565b8015610bba5780601f10610b8f57610100808354040283529160200191610bba565b820191906000526020600020905b815481529060010190602001808311610b9d57829003601f168201915b50505050508152602001600382015481526020016004820154815260200160058201548152602001600682018054610bf1906124a7565b80601f0160208091040260200160405190810160405280929190818152602001828054610c1d906124a7565b8015610c6a5780601f10610c3f57610100808354040283529160200191610c6a565b820191906000526020600020905b815481529060010190602001808311610c4d57829003601f168201915b5050509183525050600782015460ff161515602080830191909152600883018054604080518285028101850182528281529401939260009084015b82821015610d51578382906000526020600020018054610cc4906124a7565b80601f0160208091040260200160405190810160405280929190818152602001828054610cf0906124a7565b8015610d3d5780601f10610d1257610100808354040283529160200191610d3d565b820191906000526020600020905b815481529060010190602001808311610d2057829003601f168201915b505050505081526020019060010190610ca5565b5050509082525060098201546001600160a01b0381166020830152604090910190600160a01b900460ff166004811115610d8d57610d8d611fa1565b6004811115610d9e57610d9e611fa1565b90525092915050565b610daf6118c5565b62015180811015610df55760405162461bcd60e51b815260206004820152601060248201526f14195c9a5bd9081d1bdbc81cda1bdc9d60821b6044820152606401610a01565b600f55565b336000908152600a602052604090205460ff1680610e275750336000908152600d602052604090205460ff165b610e845760405162461bcd60e51b815260206004820152602860248201527f4e6f7420617574686f72697a656420746f2061646420737570706c7920636861604482015267696e206974656d7360c01b6064820152608401610a01565b6000878152600c602052604090206005015415610ed95760405162461bcd60e51b81526020600482015260136024820152724974656d20616c72656164792065786973747360681b6044820152606401610a01565b604051806101600160405280888152602001336001600160a01b031681526020018781526020018681526020018581526020014281526020018481526020018315158152602001828152602001336001600160a01b0316815260200160006004811115610f4857610f48611fa1565b90526000888152600c602090815260409182902083518155908301516001820180546001600160a01b0319166001600160a01b03909216919091179055908201516002820190610f989082612591565b50606082015160038201556080820151600482015560a0820151600582015560c08201516006820190610fcb9082612591565b5060e082015160078201805460ff19169115159190911790556101008201518051611000916008840191602090910190611e47565b506101208201516009820180546001600160a01b039092166001600160a01b0319831681178255610140850151926001600160a81b03191617600160a01b83600481111561105057611050611fa1565b02179055505060405133915088907f5c9059db174c829989a4ccf105380d2e9632e2d7085992f39f6ad503c51574a790600090a350505050505050565b6110956118c5565b306000908152602081905260409020548111156110f45760405162461bcd60e51b815260206004820152601d60248201527f496e73756666696369656e7420636f6e74726163742062616c616e63650000006044820152606401610a01565b610a96306111106005546001600160a01b036101009091041690565b83611989565b61111e611a70565b600081116111785760405162461bcd60e51b815260206004820152602160248201527f556e7374616b696e6720616d6f756e74206d75737420626520706f73697469766044820152606560f81b6064820152608401610a01565b336000908152600760205260409020548111156111d75760405162461bcd60e51b815260206004820152601b60248201527f496e73756666696369656e74207374616b65642062616c616e636500000000006044820152606401610a01565b600f54336000908152600860205260409020546111f49190612651565b4210156112435760405162461bcd60e51b815260206004820152601e60248201527f4d696e696d756d207374616b696e6720706572696f64206e6f74206d657400006044820152606401610a01565b61124b611401565b336000908152600760205260408120805483929061126a9084906124f7565b9091555061127b9050303383611989565b60405181815233907f9845e367b683334e5c0b12d7b81721ac518e649376fa65e3d68324e8f34f2679906020015b60405180910390a2610a966001600655565b6112c36118c5565b6001600160a01b0382166000908152600a602052604090205460ff166113215760405162461bcd60e51b815260206004820152601360248201527211985c9b595c881b9bdd081d995c9a599a5959606a1b6044820152606401610a01565b600081116113715760405162461bcd60e51b815260206004820152601e60248201527f52657761726420616d6f756e74206d75737420626520706f73697469766500006044820152606401610a01565b6001600160a01b0382166000908152600b602052604081208054839290611399908490612651565b90915550506005546113ba9061010090046001600160a01b03168383611989565b816001600160a01b03167f0191c2482f04eef539bbb309271e5d1d587116cf1f5e9a0815b2d7d5ac7cdd2c826040516113f591815260200190565b60405180910390a25050565b611409611a70565b600061141433610908565b90506000811161145c5760405162461bcd60e51b81526020600482015260136024820152724e6f207265776172647320746f20636c61696d60681b6044820152606401610a01565b336000908152600960205260408120805483929061147b908490612651565b90915550503360009081526008602052604090204290556d04ee2d6d415b85acef8100000000816114ab60025490565b6114b59190612651565b116114c4576114c43382611a9a565b60405181815233907f6dd401e61ba732582a5eba3d54ccc3afb3609cd3ac1a166d1d36f75fc0aedcda9060200160405180910390a250610a8a6001600655565b336000908152600d602052604090205460ff168061153b57506000838152600c60205260409020600901546001600160a01b031633145b6115925760405162461bcd60e51b815260206004820152602260248201527f4e6f7420617574686f72697a656420746f207570646174652074686973206974604482015261656d60f01b6064820152608401610a01565b6000838152600c602052604081206005015490036115e85760405162461bcd60e51b8152602060048201526013602482015272125d195b48191bd95cc81b9bdd08195e1a5cdd606a1b6044820152606401610a01565b6000838152600c60205260409020600901805483919060ff60a01b1916600160a01b83600481111561161c5761161c611fa1565b02179055506001600160a01b0381161561165b576000838152600c6020526040902060090180546001600160a01b0319166001600160a01b0383161790555b604051339084907fb57857df77019c150042c4d93b4b4acd659b282335f0eb815f74b74991351c2390600090a3505050565b6116956118c5565b610a8a6000611ad0565b6116a7611a70565b600081116116f75760405162461bcd60e51b815260206004820152601f60248201527f5374616b696e6720616d6f756e74206d75737420626520706f736974697665006044820152606401610a01565b3360009081526020819052604090205481111561174d5760405162461bcd60e51b8152602060048201526014602482015273496e73756666696369656e742062616c616e636560601b6044820152606401610a01565b336000908152600760205260409020541561176a5761176a611401565b611775333083611989565b3360009081526007602052604081208054839290611794908490612651565b90915550503360008181526008602052604090819020429055517fb539ca1e5c8d398ddf1c41c30166f33404941683be4683319b57669a93dad4ef906112a99084815260200190565b6117e882338361190a565b6117f28282611a3a565b5050565b6117fe6118c5565b610a8a611b2a565b61180e6118c5565b6001600160a01b03166000908152600d60205260409020805460ff19169055565b60606004805461086b906124a7565b6000336108fc818585611989565b6001600160a01b03811660009081526007602090815260408083205460089092528220548291829161187d86610908565b9250925092509193909250565b6118926118c5565b6001600160a01b0381166118bc57604051631e4fbdf760e01b815260006004820152602401610a01565b610a9681611ad0565b6005546001600160a01b03610100909104163314610a8a5760405163118cdaa760e01b8152336004820152602401610a01565b6119058383836001611b67565b505050565b6001600160a01b03838116600090815260016020908152604080832093861683529290522054600019811015611983578181101561197457604051637dc7a0d960e11b81526001600160a01b03841660048201526024810182905260448101839052606401610a01565b61198384848484036000611b67565b50505050565b6001600160a01b0383166119b357604051634b637e8f60e11b815260006004820152602401610a01565b6001600160a01b0382166119dd5760405163ec442f0560e01b815260006004820152602401610a01565b611905838383611c3c565b6119f0611c47565b6005805460ff191690557f5db9ee0a495bf2e6ff9c91a7834c1ba4fdd244a5e8aa4e537bd38aeae4b073aa335b6040516001600160a01b03909116815260200160405180910390a1565b6001600160a01b038216611a6457604051634b637e8f60e11b815260006004820152602401610a01565b6117f282600083611c3c565b600260065403611a9357604051633ee5aeb560e01b815260040160405180910390fd5b6002600655565b6001600160a01b038216611ac45760405163ec442f0560e01b815260006004820152602401610a01565b6117f260008383611c3c565b600580546001600160a01b03838116610100818102610100600160a81b031985161790945560405193909204169182907f8be0079c531659141344cd1fd0a4f28419497f9722a3daafe3b4186f6b6457e090600090a35050565b611b32611c6a565b6005805460ff191660011790557f62e78cea01bee320cd4e420270b5ea74000d11b0c9f74754ebdbfc544b05a258611a1d3390565b6001600160a01b038416611b915760405163e602df0560e01b815260006004820152602401610a01565b6001600160a01b038316611bbb57604051634a1406b160e11b815260006004820152602401610a01565b6001600160a01b038085166000908152600160209081526040808320938716835292905220829055801561198357826001600160a01b0316846001600160a01b03167f8c5be1e5ebec7d5bd14f71427d1e84f3dd0314c0f7b2291e5b200ac8c7c3b92584604051611c2e91815260200190565b60405180910390a350505050565b611905838383611c8e565b60055460ff16610a8a57604051638dfc202b60e01b815260040160405180910390fd5b60055460ff1615610a8a5760405163d93c066560e01b815260040160405180910390fd5b611c96611c6a565b6119058383836001600160a01b038316611cc7578060026000828254611cbc9190612651565b90915550611d399050565b6001600160a01b03831660009081526020819052604090205481811015611d1a5760405163391434e360e21b81526001600160a01b03851660048201526024810182905260448101839052606401610a01565b6001600160a01b03841660009081526020819052604090209082900390555b6001600160a01b038216611d5557600280548290039055611d74565b6001600160a01b03821660009081526020819052604090208054820190555b816001600160a01b0316836001600160a01b03167fddf252ad1be2c89b69c2b068fc378daa952ba7f163c4a11628f55a4df523b3ef83604051611db991815260200190565b60405180910390a3505050565b6040518061016001604052806000801916815260200160006001600160a01b0316815260200160608152602001600081526020016000815260200160008152602001606081526020016000151581526020016060815260200160006001600160a01b0316815260200160006004811115611e4257611e42611fa1565b905290565b828054828255906000526020600020908101928215611e8d579160200282015b82811115611e8d5782518290611e7d9082612591565b5091602001919060010190611e67565b50611e99929150611e9d565b5090565b80821115611e99576000611eb18282611eba565b50600101611e9d565b508054611ec6906124a7565b6000825580601f10611ed6575050565b601f016020900490600052602060002090810190610a9691905b80821115611e995760008155600101611ef0565b80356001600160a01b0381168114611f1b57600080fd5b919050565b600060208284031215611f3257600080fd5b611f3b82611f04565b9392505050565b600060208284031215611f5457600080fd5b5035919050565b6000815180845260005b81811015611f8157602081850181015186830182015201611f65565b506000602082860101526020601f19601f83011685010191505092915050565b634e487b7160e01b600052602160045260246000fd5b60058110611fd557634e487b7160e01b600052602160045260246000fd5b9052565b8a81526001600160a01b038a81166020830152610140604083018190526000916120058483018d611f5b565b91508a60608501528960808501528860a085015283820360c085015261202b8289611f5b565b925086151560e0850152808616610100850152505061204e610120830184611fb7565b9b9a5050505050505050505050565b602081526000611f3b6020830184611f5b565b6000806040838503121561208357600080fd5b61208c83611f04565b946020939093013593505050565b6000806000606084860312156120af57600080fd5b6120b884611f04565b92506120c660208501611f04565b9150604084013590509250925092565b600081518084526020808501808196508360051b8101915082860160005b8581101561211e57828403895261210c848351611f5b565b988501989350908401906001016120f4565b5091979650505050505050565b60208152815160208201526000602083015161215260408401826001600160a01b03169052565b50604083015161016080606085015261216f610180850183611f5b565b915060608501516080850152608085015160a085015260a085015160c085015260c0850151601f19808685030160e08701526121ab8483611f5b565b935060e087015191506101006121c48188018415159052565b808801519250506101208187860301818801526121e185846120d6565b94508088015192505050610140612202818701836001600160a01b03169052565b860151905061221385830182611fb7565b5090949350505050565b634e487b7160e01b600052604160045260246000fd5b604051601f8201601f1916810167ffffffffffffffff8111828210171561225c5761225c61221d565b604052919050565b600082601f83011261227557600080fd5b813567ffffffffffffffff81111561228f5761228f61221d565b6122a2601f8201601f1916602001612233565b8181528460208386010111156122b757600080fd5b816020850160208301376000918101602001919091529392505050565b600082601f8301126122e557600080fd5b8135602067ffffffffffffffff808311156123025761230261221d565b8260051b612311838201612233565b938452858101830193838101908886111561232b57600080fd5b84880192505b85831015612367578235848111156123495760008081fd5b6123578a87838c0101612264565b8352509184019190840190612331565b98975050505050505050565b600080600080600080600060e0888a03121561238e57600080fd5b87359650602088013567ffffffffffffffff808211156123ad57600080fd5b6123b98b838c01612264565b975060408a0135965060608a0135955060808a01359150808211156123dd57600080fd5b6123e98b838c01612264565b945060a08a01359150811515821461240057600080fd5b90925060c0890135908082111561241657600080fd5b506124238a828b016122d4565b91505092959891949750929550565b60008060006060848603121561244757600080fd5b8335925060208401356005811061245d57600080fd5b915061246b60408501611f04565b90509250925092565b6000806040838503121561248757600080fd5b61249083611f04565b915061249e60208401611f04565b90509250929050565b600181811c908216806124bb57607f821691505b6020821081036124db57634e487b7160e01b600052602260045260246000fd5b50919050565b634e487b7160e01b600052601160045260246000fd5b81810381811115610902576109026124e1565b8082028115828204841417610902576109026124e1565b60008261253e57634e487b7160e01b600052601260045260246000fd5b500490565b601f82111561190557600081815260208120601f850160051c8101602086101561256a5750805b601f850160051c820191505b8181101561258957828155600101612576565b505050505050565b815167ffffffffffffffff8111156125ab576125ab61221d565b6125bf816125b984546124a7565b84612543565b602080601f8311600181146125f457600084156125dc5750858301515b600019600386901b1c1916600185901b178555612589565b600085815260208120601f198616915b8281101561262357888601518255948401946001909101908401612604565b50858210156126415787850151600019600388901b60f8161c191681555b5050505050600190811b01905550565b80820180821115610902576109026124e156fea26469706673582212200b1a241ad38ee3fb7dcf22d5a82c3856009fe8e6bd777ae5d35e600c3eebd19e64736f6c63430008140033",
  "linkReferences": {},
  "deployedLinkReferences": {}
}